:030000000200E714
:0C00E700787FE4F6D8FD75812002001C33
:1000C100759850438920758BFD758DFDD28ED2AF09
:0300D100D2AC228C
:0800F3008F993099FDC299229A
:1000D400120003FF600C1200F3740129F9E43AFAE8
:0300E40080EE2289
:03002300020026B2
:10002600C0E0C0F0C083C082C0D075D000C000C0A0
:0D00360001C002C003C004C005C006C00721
:100043003098FDC298AD993098FDC298AF99EFF5FD
:1000530008EDF509D200FFAE081200A9AF0912009E
:01006300F3A9
:10006400D007D006D005D004D003D002D001D000F0
:0B007400D0D0D082D083D0F0D0E0329A
:10007F00E4FBD291C292EE5480FC7D006004D290DA
:10008F008002C290C29100EF25E0FFEE33FED291C5
:09009F00000BBB10E1D291D292DA
:0100A8002235
:1000A9003000059040008005E4F583F582E5834E34
:0800B900FEE5824FFF02007F0B
:05001C001200C180FE8E
:10000300BB010689828A83E0225002E722BBFE02FB
:09001300E32289828A83E493222E
:00000001FF
