:030000000200DC1F
:0C00DC00787FE4F6D8FD75812002001C3E
:1000B600759850438910758BFD758DFDD28ED2AF24
:0300C600D2AC2297
:0800E8008F993099FDC29922A5
:1000C900120003FF600C1200E8740129F9E43AFAFE
:0300D90080EE2294
:03002300020026B2
:10002600C0E0C0F0C083C082C0D075D000C000C0A0
:0D00360001C002C003C004C005C006C00721
:10004300309813C298859908AF087E00D200120039
:060053009EAF081200E858
:10005900D007D006D005D004D003D002D001D000FB
:0B006900D0D0D082D083D0F0D0E032A5
:10007400E4FBD291C292EE5480FC7D006004D290E5
:100084008002C290C29100EF25E0FFEE33FED291D0
:09009400000BBB10E1D291D292E5
:01009D002240
:10009E003000059040008005E4F583F582E5834E3F
:0800AE00FEE5824FFF02007421
:05001C001200B680FE99
:10000300BB010689828A83E0225002E722BBFE02FB
:09001300E32289828A83E493222E
:00000001FF
