:03000000020122D8
:0C012200787FE4F6D8FD75812002001CF7
:1000FC00759850438920758BFD758DFDD28ED2AFCE
:03010C00D2AC2250
:08012E008F993099FDC299225E
:10010F00120003FF600C12012E740129F9E43AFA70
:03011F0080EE224D
:0300230002007F59
:10007F00C0E0C0F0C083C082C0D075D000C000C047
:0D008F0001C002C003C004C005C006C007C8
:10009C00309818C298859908AF087E00D2007B0171
:0B00AC00E4FDFC120026AF0812012E3C
:1000B700D007D006D005D004D003D002D001D0009D
:0B00C700D0D0D082D083D0F0D0E03247
:1000D200E4FBD291C292EE5480FC7D006004D29087
:1000E2008002C290C29100EF25E0FFEE33FED29172
:0900F200000BBB10E1D291D29287
:0100FB0022E2
:080026008E098F0A8C0B8D0C72
:10002E003000059040008005E4F583F582EB24FE58
:10003E006009146013240270378021E50B540F45BC
:10004E0083FEE50C45828024E50B540FFEE58344C8
:10005E0010AD824EFEED450CFF1200D2E509540F95
:10006E00FEE5834480AD824EFEED450AFF1200D2BE
:01007E00225F
:05001C001200FC80FE53
:10000300BB010689828A83E0225002E722BBFE02FB
:09001300E32289828A83E493222E
:00000001FF
