:03000000020026D5
:0C002600787FE4F6D8FD75812002006DA3
:0801CA00020D0000020F00000D
:1001A400759850438920758BFD758DFDD28ED2AF25
:0301B400D2AC22A8
:0801D3008F993099FDC29922B9
:1001B700120003FF600C1201D3740129F9E43AFA23
:0301C70080EE22A5
:030023000200B226
:1000B200C0E0C0F0C083C082C0D075D000C000C014
:0D00C20001C002C003C004C005C006C00795
:1000CF00309834C298859908740D2510F8A60875D4
:1000DF000F00751000E50DB4FF09750F00751001C5
:1000EF00750D00AF0D7E00AD0E7C00C2007B0312BC
:0700FF000121AF081201D33B
:10010600D007D006D005D004D003D002D001D0004D
:0B011600D0D0D082D083D0F0D0E032F7
:10017A00E4FBD291C292EE5480FC7D006004D290DE
:10018A008002C290C29100EF25E0FFEE33FED291C9
:09019A00000BBB10E1D291D292DE
:0101A3002239
:080121008E098F0A8C0B8D0C76
:100129003000059040008005E4F583F582EB24FE5C
:100139006009146013240270378021E50B540F45C0
:1001490083FEE50C45828024E50B540FFEE58344CC
:1001590010AD824EFEED450CFF12017AE509540FF0
:10016900FEE5834480AD824EFEED450AFF12017A19
:010179002263
:05001C001201A480FEAA
:1000320002001CE493A3F8E493A34003F68001F2C8
:1000420008DFF48029E493A3F85407240CC8C333CF
:10005200C4540F4420C8834004F456800146F6DF9E
:10006200E4800B01020408102040809001CAE47E63
:10007200019360BCA3FF543F30E509541FFEE49393
:10008200A360010ECF54C025E060A840B8E493A35A
:10009200FAE493A3F8E493A3C8C582C8CAC583CA85
:1000A200F0A3C8C582C8CAC583CADFE9DEE780BE3D
:0101D200002C
:10000300BB010689828A83E0225002E722BBFE02FB
:09001300E32289828A83E493222E
:00000001FF
